{
  "contractName": "BeaconAppToken",
  "abi": [
    {
      "constant": true,
      "inputs": [],
      "name": "totalSupply",
      "outputs": [
        {
          "name": "",
          "type": "uint256"
        }
      ],
      "payable": false,
      "stateMutability": "view",
      "type": "function"
    },
    {
      "inputs": [
        {
          "name": "_initialAccountDeposit",
          "type": "uint256"
        }
      ],
      "payable": false,
      "stateMutability": "nonpayable",
      "type": "constructor"
    },
    {
      "payable": false,
      "stateMutability": "nonpayable",
      "type": "fallback"
    },
    {
      "anonymous": false,
      "inputs": [
        {
          "indexed": false,
          "name": "from",
          "type": "address"
        },
        {
          "indexed": false,
          "name": "to",
          "type": "address"
        },
        {
          "indexed": false,
          "name": "value",
          "type": "uint256"
        }
      ],
      "name": "Transfer",
      "type": "event"
    },
    {
      "anonymous": false,
      "inputs": [
        {
          "indexed": false,
          "name": "from",
          "type": "address"
        },
        {
          "indexed": false,
          "name": "spender",
          "type": "address"
        },
        {
          "indexed": false,
          "name": "value",
          "type": "uint256"
        }
      ],
      "name": "Approval",
      "type": "event"
    },
    {
      "constant": false,
      "inputs": [
        {
          "name": "_fundsToDeposit",
          "type": "uint256"
        }
      ],
      "name": "depositFunds",
      "outputs": [
        {
          "name": "success",
          "type": "bool"
        }
      ],
      "payable": false,
      "stateMutability": "nonpayable",
      "type": "function"
    },
    {
      "constant": false,
      "inputs": [
        {
          "name": "_fundsToWithdraw",
          "type": "uint256"
        }
      ],
      "name": "withdrawFunds",
      "outputs": [
        {
          "name": "success",
          "type": "bool"
        }
      ],
      "payable": false,
      "stateMutability": "nonpayable",
      "type": "function"
    },
    {
      "constant": false,
      "inputs": [
        {
          "name": "_clientAccount",
          "type": "address"
        }
      ],
      "name": "freezeClientAccount",
      "outputs": [
        {
          "name": "success",
          "type": "bool"
        }
      ],
      "payable": false,
      "stateMutability": "nonpayable",
      "type": "function"
    },
    {
      "constant": false,
      "inputs": [
        {
          "name": "_clientAccount",
          "type": "address"
        }
      ],
      "name": "unfreezeClientAccount",
      "outputs": [
        {
          "name": "success",
          "type": "bool"
        }
      ],
      "payable": false,
      "stateMutability": "nonpayable",
      "type": "function"
    },
    {
      "constant": false,
      "inputs": [
        {
          "name": "_to",
          "type": "address"
        },
        {
          "name": "_value",
          "type": "uint256"
        }
      ],
      "name": "transfer",
      "outputs": [
        {
          "name": "success",
          "type": "bool"
        }
      ],
      "payable": false,
      "stateMutability": "nonpayable",
      "type": "function"
    },
    {
      "constant": false,
      "inputs": [
        {
          "name": "_from",
          "type": "address"
        },
        {
          "name": "_to",
          "type": "address"
        },
        {
          "name": "_value",
          "type": "uint256"
        }
      ],
      "name": "transferFrom",
      "outputs": [
        {
          "name": "success",
          "type": "bool"
        }
      ],
      "payable": false,
      "stateMutability": "nonpayable",
      "type": "function"
    },
    {
      "constant": true,
      "inputs": [
        {
          "name": "_owner",
          "type": "address"
        }
      ],
      "name": "balanceOf",
      "outputs": [
        {
          "name": "balance",
          "type": "uint256"
        }
      ],
      "payable": false,
      "stateMutability": "view",
      "type": "function"
    },
    {
      "constant": false,
      "inputs": [
        {
          "name": "_spender",
          "type": "address"
        },
        {
          "name": "_value",
          "type": "uint256"
        }
      ],
      "name": "approve",
      "outputs": [
        {
          "name": "success",
          "type": "bool"
        }
      ],
      "payable": false,
      "stateMutability": "nonpayable",
      "type": "function"
    },
    {
      "constant": true,
      "inputs": [
        {
          "name": "_owner",
          "type": "address"
        },
        {
          "name": "_spender",
          "type": "address"
        }
      ],
      "name": "allowance",
      "outputs": [
        {
          "name": "remaining",
          "type": "uint256"
        }
      ],
      "payable": false,
      "stateMutability": "view",
      "type": "function"
    }
  ],
  "bytecode": "0x6060604052341561000f57600080fd5b6040516020806107048339810160405280805160048054600160a060020a03191633600160a060020a0316179055600255506106b29050806100526000396000f3006060604052600436106100a35763ffffffff7c0100000000000000000000000000000000000000000000000000000000600035041663095ea7b381146100b3578063155dd5ee146100e957806318160ddd146100ff57806323b872dd146101245780632505b5041461014c5780633b76594d1461016b57806370a08231146101815780638d49a2d7146101a0578063a9059cbb146101bf578063dd62ed3e146101e1575b34156100ae57600080fd5b600080fd5b34156100be57600080fd5b6100d5600160a060020a0360043516602435610206565b604051901515815260200160405180910390f35b34156100f457600080fd5b6100d56004356102b4565b341561010a57600080fd5b610112610333565b60405190815260200160405180910390f35b341561012f57600080fd5b6100d5600160a060020a0360043581169060243516604435610339565b341561015757600080fd5b6100d5600160a060020a0360043516610475565b341561017657600080fd5b6100d56004356104bc565b341561018c57600080fd5b610112600160a060020a0360043516610524565b34156101ab57600080fd5b6100d5600160a060020a036004351661053f565b34156101ca57600080fd5b6100d5600160a060020a0360043516602435610582565b34156101ec57600080fd5b610112600160a060020a036004358116906024351661065b565b600160a060020a03331660009081526003602052604081205460ff16151560011461023057600080fd5b600160a060020a0333818116600090815260016020908152604080832094881683529390528290208490557f8c5be1e5ebec7d5bd14f71427d1e84f3dd0314c0f7b2291e5b200ac8c7c3b925918590859051600160a060020a039384168152919092166020820152604080820192909252606001905180910390a150600192915050565b600160a060020a03331660009081526003602052604081205460ff1615156001146102de57600080fd5b600160a060020a0333166000908152602081905260409020548290101561030457600080fd5b5033600160a060020a031660009081526020819052604090208054829003905560028054919091039055600190565b60025481565b600160a060020a033316600090815260036020526040812054819060ff16151560011461036557600080fd5b50600160a060020a0380851660008181526001602090815260408083203390951683529381528382205492825281905291909120548390108015906103aa5750828110155b15156103b557600080fd5b600160a060020a038085166000908152602081905260408082208054870190559187168152208054849003905560001981101561041a57600160a060020a03808616600090815260016020908152604080832033909416835292905220805484900390555b7fddf252ad1be2c89b69c2b068fc378daa952ba7f163c4a11628f55a4df523b3ef858585604051600160a060020a039384168152919092166020820152604080820192909252606001905180910390a1506001949350505050565b60045460009033600160a060020a0390811691161461049357600080fd5b50600160a060020a03166000908152600360205260409020805460ff1916600190811790915590565b600160a060020a03331660009081526003602052604081205460ff1615156001146104e657600080fd5b60025482810110156104f757600080fd5b5033600160a060020a03166000908152602081905260409020805482019055600280549091019055600190565b600160a060020a031660009081526020819052604090205490565b60045460009033600160a060020a0390811691161461055d57600080fd5b50600160a060020a03166000908152600360205260409020805460ff19169055600190565b600160a060020a03331660009081526003602052604081205460ff1615156001146105ac57600080fd5b600160a060020a033316600090815260208190526040902054829010156105d257600080fd5b600160a060020a03338181166000908152602081905260408082208054879003905592861681528290208054850190557fddf252ad1be2c89b69c2b068fc378daa952ba7f163c4a11628f55a4df523b3ef918590859051600160a060020a039384168152919092166020820152604080820192909252606001905180910390a150600192915050565b600160a060020a039182166000908152600160209081526040808320939094168252919091522054905600a165627a7a723058200ffc64f9f0e5440a621f6991cb710c46bc0950dc3da51d4f98b8288a75faca100029",
  "source": "pragma solidity ^0.4.8;\r\n\r\n//  Beacon App Transaction Script (aka. Smart Contract)\r\n\r\ncontract BeaconAppToken {\r\n    event Transfer (address from, address to, uint256 value);\r\n    event Approval (address from, address spender, uint256 value);\r\n\r\n    mapping (address => uint256) balances;\r\n    mapping (address => mapping (address => uint256)) allowed;\r\n    uint256 public totalSupply;\r\n    uint256 constant MAX_UINT256 = 2**256 - 1;\r\n\r\n    //  addresses should mirror addresses in \"balances\" mapping\r\n    mapping (address => bool) clientPermission;\r\n    address beaconAppOwner;\r\n\r\n    modifier noFrozenAccount() {\r\n        require(clientPermission[msg.sender] == true);\r\n        _;\r\n    }\r\n\r\n    modifier onlyOwner() {\r\n        require(msg.sender == beaconAppOwner);\r\n        _;\r\n    }\r\n\r\n    function BeaconAppToken(uint256 _initialAccountDeposit) {\r\n        beaconAppOwner = msg.sender;\r\n        totalSupply = _initialAccountDeposit;\r\n    }\r\n\r\n    function depositFunds(uint256 _fundsToDeposit) public noFrozenAccount returns (bool success) {\r\n        require(totalSupply + _fundsToDeposit >= totalSupply);\r\n        balances[msg.sender] += _fundsToDeposit;\r\n        totalSupply += _fundsToDeposit;\r\n        return true;\r\n    }\r\n\r\n    function withdrawFunds(uint256 _fundsToWithdraw) public noFrozenAccount returns (bool success) {\r\n        require(balances[msg.sender] >= _fundsToWithdraw);\r\n        balances[msg.sender] -= _fundsToWithdraw;\r\n        totalSupply -= _fundsToWithdraw;\r\n        return true;\r\n    }\r\n\r\n    function freezeClientAccount(address _clientAccount) public onlyOwner returns (bool success) {\r\n        clientPermission[_clientAccount] = false;\r\n        return true;\r\n    }\r\n\r\n    function unfreezeClientAccount(address _clientAccount) public onlyOwner returns (bool success) {\r\n        clientPermission[_clientAccount] = true;\r\n        return true;\r\n    }\r\n\r\n/*\r\n*   ERC20 Functions with original variable names\r\n*/\r\n\r\n    function transfer(address _to, uint256 _value) public noFrozenAccount returns (bool success) {\r\n        require(balances[msg.sender] >= _value);\r\n        balances[msg.sender] -= _value;\r\n        balances[_to] += _value;\r\n        Transfer(msg.sender, _to, _value);\r\n        return true;\r\n    }\r\n\r\n    function transferFrom(address _from, address _to, uint256 _value) public noFrozenAccount returns (bool success) {\r\n        uint256 allowance = allowed[_from][msg.sender];\r\n        require(balances[_from] >= _value && allowance >= _value);\r\n        balances[_to] += _value;\r\n        balances[_from] -= _value;\r\n        if (allowance < MAX_UINT256) {\r\n            allowed[_from][msg.sender] -= _value;\r\n        }\r\n        Transfer(_from, _to, _value);\r\n        return true;\r\n    }\r\n\r\n    function balanceOf(address _owner) constant public returns (uint256 balance) {\r\n        return balances[_owner];\r\n    }\r\n\r\n    function approve(address _spender, uint256 _value) public noFrozenAccount returns (bool success) {\r\n        allowed[msg.sender][_spender] = _value;\r\n        Approval(msg.sender, _spender, _value);\r\n        return true;\r\n    }\r\n\r\n    function allowance(address _owner, address _spender) public constant returns (uint256 remaining) {\r\n      return allowed[_owner][_spender];\r\n    }\r\n\r\n//  Refund all ethers deposited into Transaction Script address\r\n    function () public {\r\n        revert();\r\n    }\r\n}\r\n",
  "sourcePath": "C:\\Users\\p\\Projects\\beacon-app\\contracts\\BeaconAppToken.sol",
  "compiler": {
    "name": "solc",
    "version": "0.4.19+commit.c4cbbb05.Emscripten.clang"
  },
  "schemaVersion": "1.0.1",
  "updatedAt": "2018-02-04T22:41:24.029Z"
}