{
  "contractName": "SimpleStorage",
  "abi": [
    {
      "constant": false,
      "inputs": [
        {
          "name": "x",
          "type": "uint256"
        }
      ],
      "name": "set",
      "outputs": [],
      "payable": false,
      "stateMutability": "nonpayable",
      "type": "function"
    },
    {
      "constant": true,
      "inputs": [],
      "name": "get",
      "outputs": [
        {
          "name": "",
          "type": "uint256"
        }
      ],
      "payable": false,
      "stateMutability": "view",
      "type": "function"
    }
  ],
  "bytecode": "0x6060604052341561000f57600080fd5b60bb8061001d6000396000f30060606040526004361060485763ffffffff7c010000000000000000000000000000000000000000000000000000000060003504166360fe47b18114604d5780636d4ce63c146062575b600080fd5b3415605757600080fd5b60606004356084565b005b3415606c57600080fd5b60726089565b60405190815260200160405180910390f35b600055565b600054905600a165627a7a72305820d3d8b44732f98607bbde5c2d25fc2a5bc2974c64b19f835173ff9739d4af53720029",
  "source": "\npragma solidity ^0.4.18;\n\ncontract SimpleStorage {\n  uint storedData;\n\n  function set(uint x) public {\n    storedData = x;\n  }\n\n  function get() public view returns (uint) {\n    return storedData;\n  }\n}",
  "sourcePath": "/home/lightswarm/learncode/beacon-app/contracts/SimpleStorage.sol",
  "compiler": {
    "name": "solc",
    "version": "0.4.18+commit.9cf6e910.Emscripten.clang"
  },
  "schemaVersion": "1.0.1",
  "updatedAt": "2017-12-21T21:43:54.094Z"
}